{
  "_format": "hh-sol-artifact-1",
  "contractName": "Increment",
  "sourceName": "contracts/incremanet.sol",
  "abi": [
    {
      "inputs": [],
      "name": "getCount",
      "outputs": [
        {
          "internalType": "uint256",
          "name": "",
          "type": "uint256"
        }
      ],
      "stateMutability": "view",
      "type": "function"
    },
    {
      "inputs": [],
      "name": "increment",
      "outputs": [],
      "stateMutability": "nonpayable",
      "type": "function"
    }
  ],
  "bytecode": "0x60806040526000805534801561001457600080fd5b50610166806100246000396000f3fe608060405234801561001057600080fd5b50600436106100365760003560e01c8063a87d942c1461003b578063d09de08a14610059575b600080fd5b610043610063565b604051610050919061009e565b60405180910390f35b61006161006c565b005b60008054905090565b60008081548092919061007e906100e8565b9190505550565b6000819050919050565b61009881610085565b82525050565b60006020820190506100b3600083018461008f565b92915050565b7f4e487b7100000000000000000000000000000000000000000000000000000000600052601160045260246000fd5b60006100f382610085565b91507fffffffffffffffffffffffffffffffffffffffffffffffffffffffffffffffff8203610125576101246100b9565b5b60018201905091905056fea2646970667358221220c60055a7e15897a98adc82d1c1e063c49f33e6178a276856f3fdb415fa0933c264736f6c63430008110033",
  "linkReferences": {},
  "deployedLinkReferences": {}
}